:04000000F5EF13F015
:08000800046ED8CF05F0E0CF33
:1000100006F00001E9CF0CF0EACF07F0E1CF08F0DD
:10002000E2CF09F0D9CF0AF0DACF0BF0F3CF12F01C
:10003000F4CF13F0FACF14F000C00EF001C00FF0AF
:1000400002C010F003C011F09DA02AEF00F09EB096
:1000500032EF05F0F0A630EF00F0F0B0D6EF04F08C
:10006000F0A836EF00F0F0B212EF05F09DAA3CEFD9
:1000700000F09EBA70EF04F00EC000F00FC001F067
:1000800010C002F011C003F00CC0E9FF07C0EAFF86
:10009000078E08C0E1FF09C0E2FF0AC0D9FF0BC00C
:1000A000DAFF12C0F3FF13C0F4FF14C0FAFF0450CC
:1000B00006C0E0FF05C0D8FF10009EAAFED7ABCF58
:1000C0001DF0AECF01F01DA202D0AB98AB8872EF4D
:1000D00004F03CC13EF13BC13DF13EC103F00101E2
:1000E0003DC1E9FF3EC1EAFFEF5206E03D2BD8B427
:1000F0003E2B0001F2D701013B513D5D006E3C51AA
:100100003E59036E00C001F0000196EF04F03DC1BE
:1001100042F13CC141F10101405324E03FC103F0F1
:100120003EC1E9FF3FC1EAFFEF521CE042C103F0CC
:100130004151412BD8B4422B436F03C044F13FC11E
:1001400003F03E513E2BD8B43F2BE96E03C0EAFFCB
:10015000EFCF45F144C1EAFF43C1E9FF45C1EFFFDD
:100160004007DAD740530CE042C103F04151412B24
:10017000D8B4422BE96E03C0EAFFEF6A4007F2D71A
:100180003CC101F03DC102F00001A6EF04F0010105
:100190004A51D8B471D0006E4E51D8B46DD00026FB
:1001A00004E3810E002668E204D07F0E005E64E363
:1001B00063E04BC152F14F51521B4B8F4F8F4D514A
:1001C0005103F4CF54F14C515003F4CF03F0F3CF6B
:1001D00053F15103F3505427F4505323000E0322DC
:1001E0004D515003F3505427F4505323000E026A2C
:1001F000032202224B515103F3505327F4500322A0
:10020000000E02224B515003F3500326F4500222F9
:10021000000E016A01224D514F03F3505327F45051
:100220000322000E022201224C514F03F3500326F9
:10023000F4500222000E01224B514F03F3500226CC
:10024000F4500122002A01BE05D05337033602368E
:1002500001360006000E53AF0AD0032A0222012203
:10026000015005E1025003E1035001E1002A52BFB1
:10027000018E52AF019E04D0006A016A026A036ACD
:100280000001000C8E0E006E4FC101F04EC102F055
:10029000036A015209E102C001F0026A080E005E21
:1002A000015202E1006A08D0D89001BE04D00236A3
:1002B00001360006F9D7019E000C01014E51D8B459
:1002C000A5D05A6F5251D8B4A1D05A5F05E37F0E22
:1002D0005A27D8B09BD006D0810E5A5FD8A096D0AE
:1002E000D8B494D05AC100F0016A026A036A596B0B
:1002F0004FC158F1588F50C157F151C156F1190EE5
:100300005A6F5551565F0DE2010E575F0AE2585F72
:1003100008E2595F06E2592B582B572B55515627A7
:1003200028D05451575F12E2010E585F0FE2595F17
:100330000DE2592B582B545157275551562719E385
:10034000572B17E1582B15E1592B13D05351800926
:10035000585F0EE2010E595F0BE2592B5351800991
:10036000582754515727E9E3582BE7E1592BE5D794
:1003700003805A2F01D00BD0D890563757375837B3
:100380005937D8900336023601365B37BAD75BA1AE
:1003900006D0D8900132023203325B3302D000061D
:1003A00035E05BBF1ED0D89056375737583759378E
:1003B0005551565F07E2010E575F04E2585F02E2B3
:1003C000595F1AE35451575F05E2010E585F02E28C
:1003D000595F12E353518009585F03E2010E595FE0
:1003E0000BE3032A09E1022A07E1012A05E1002AB9
:1003F0000DE00132023203324FC15AF153515A1B00
:100400005AAF02D0018E06D0019E04D0006A016A64
:10041000026A036A0001000C800ED8A202D001011A
:10042000531B0101586B596B4FC157F15351571B67
:100430004E51D8B4DFD0566F006E5251D8B4E3D0CD
:10044000565FD8B483D03EE353C15CF15C8F54C196
:100450005BF155C15AF1596BD8905C335B335A3319
:100460005933562FF8D757AF03D05881E0D0589161
:1004700056915889010EEA6E510EE96EEBD05899EB
:1004800057BF0AD056A113D05C335B335A3359336C
:10049000002AD8B4C7D00BD05CBF0CD0D890593745
:1004A0005A375B375C370006D8B4BCD0F5D7588DC7
:1004B0006DD0589D4FC157F14FAF02D05C8FABD07C
:1004C0005C9FA9D052C156F152C100F04E51565F07
:1004D0004FC15CF15C8F50C15BF151C15AF1596B56
:1004E000D8905C335B335A335933562FF8D757AF14
:1004F00003D058839CD058935691588B010EEA6EC6
:10050000550EE96EA7D0589B57BF0AD056A113D0FD
:100510005C335B335A335933002AD8B483D00BD0C1
:100520005CBF0CD0D89059375A375B375C37000620
:10053000D8B478D0F5D7588F29D0589F53C157F1E8
:1005400053AF02D05C8F67D05C9F65D053C15CF124
:100550005C8F54C15BF155C15AF157AF04D05C9F19
:10056000588565D05895596B5691010EEA6E510E1B
:10057000E96E70D057BF1CD04FC157F156A106D0BD
:100580005C335B335A335933002A4CE059AF0BD0FC
:100590005A2B09E15B2B07E15C2B05E15C335B33F4
:1005A0005A33002A3FE058BD84D758BFC6D71CD065
:1005B000800E5C1B5CAF04D03AD053C157F10AD017
:1005C0004FC157F15C5306E15B5304E15A5302E11A
:1005D000006A21D05CBF08D0D89059375A375B37B2
:1005E0005C37002EF7D71ED057AF02D05C8F13D0E8
:1005F0005C9F11D052C100F053C15CF154C15BF15A
:1006000055C15AF108D04EC100F04FC15CF150C144
:100610005BF151C15AF15CC101F05BC102F05AC1FA
:1006200003F034D0006A016A026A036A2FD0596B62
:100630005A1F5B1F5C1F591F592B05E15A2B03E101
:100640005B2B01E15C2B58B112D758B354D758B586
:1006500089D7B3D7EF505A2705E35B2B03E15C2B17
:10066000D8B45681ED52EF505B2703E35C2BD8B42E
:100670005681ED52EF50EFBE01D0800A5C27D8B012
:10068000568158B9FCD658BB3ED774D70001000C30
:100690000101426B416B406B7F0E3F6F466B456BB8
:1006A000446B436B478147934795496B3B513C11E2
:1006B00005E1006A016A026A036A0FD14951492BB8
:1006C000036A3B25E96E3C510320EA6EEFCF48F107
:1006D0004853D8B4C5D047A10FD0485120080CE0EA
:1006E000479148512B0803E14793ADD005D04851BD
:1006F0002D0802E14783A7D047B107D048512E0803
:1007000004E147B502D047859ED047B199D0485102
:100710002F08D8B095D048513908D8A091D0300EC4
:10072000485F47A553D042C14DF141C14CF140C192
:100730004BF13FC14AF1516B506B200E4F6F820E4F
:100740004E6F000124DD03C042F102C041F101C03F
:1007500040F100C03FF101014F6B48C14EF1000173
:1007600091DD00C04AF101C04BF102C04CF103C061
:100770004DF103C051F102C050F101C04FF100C072
:100780004EF142C155F141C154F140C153F13FC155
:1007900052F193DDD89246C151F145C150F144C1A7
:1007A0004FF143C14EF103C055F102C054F101C0F5
:1007B00053F100C052F130DE03C046F102C045F1F2
:1007C00001C044F100C043F139D001014D6B4C6BC5
:1007D000200E4B6F820E4A6F46C151F145C150F158
:1007E00044C14FF143C14EF10001D1DC00C04AF1D8
:1007F00001C04BF102C04CF103C04DF101014F6B40
:1008000048C14EF100013EDDD8924DC151F14CC1BD
:1008100050F14BC14FF14AC14EF103C055F102C036
:1008200054F101C053F100C052F1F6DD03C046F1AE
:1008300002C045F101C044F100C043F105D00101FF
:1008400047B101D00DD0000101014951492B036A84
:100850003B25E96E3C510320EA6EEFCF48F138D7D3
:1008600047A319D04D6B4C6B800E4B6F7F0E4A6FB8
:1008700046C151F145C150F144C14FF143C14EF160
:10088000000185DC03C046F102C045F101C044F11E
:1008900000C043F101013D513E1117E049530CE006
:1008A00049073DC1E9FF3EC1EAFF49513B25EF6ED3
:1008B000000E3C21EC6E09D03DC1E9FF3EC1EAFFCC
:1008C0003CC1ECFFED523BC1EFFF43C100F044C11E
:1008D00001F045C102F046C103F00001AFEF04F0A2
:1008E0005DEF00F001C08FF08F5141080AE1C36B4A
:1008F000036A910E010103C0EAFFE96EEF6A52D06C
:1009000000018F51430843E1C351C32B036A910F88
:10091000E96E000E0320EA6EEF6A91C090F00101CB
:100920003C6B910E3B6F000169EF00F0010E015C22
:1009300001013B6F010E3D6F270E3C6F3F6B920E26
:100940003E6F3BC140F1000187EF00F0010E010155
:100950003C6F270E3B6F3E6B3D6B000199D603C089
:10096000CCF002C0CBF001C0CAF000C0C9F08E8547
:10097000C46BC45112080AE3036AC451270FE96E1D
:10098000010E0320EA6EEF6AC42BF3D70AD0C351DD
:10099000C32B036A910FE96E000E0320EA6E8FC02D
:1009A000EFFF01019E9A00013CEF00F0F09683A258
:1009B00017D0010E1E26D8B01F2AD8B4202AD8B4CA
:1009C000212A9051540803E09051460808E1010E95
:1009D0002E26D8B02F2AD8B4302AD8B4312A16D02F
:1009E000FF0E1E26D8A01F26D8A02026D8A021267C
:1009F0009051540803E09051460808E1010E2E265C
:100A0000D8B02F2AD8B4302AD8B4312A21C025F042
:100A100020C024F01FC023F01EC022F0F086F0900A
:100A20003CEF00F0F09883A409D0010E3226D8B034
:100A3000332AD8B4342AD8B4352A08D0FF0E322647
:100A4000D8A03326D8A03426D8A0352635C039F012
:100A500034C038F033C037F032C036F0F088F0924E
:100A60003CEF00F08E89C50ECF6E670ECE6E9E9065
:100A70003CEF00F0DE51B608DE6F036ADFC0E2F043
:100A8000DF8FD890DF33E033E133033202320132BB
:100A90000032DE2FF6D7E2AF0BD0001E011E021E81
:100AA000031E002AD8B4012AD8B4022AD8B4032AD3
:100AB000000C8EA52FEF0AF08E918E938E97216AEF
:100AC000206A1F6A1E6A356A346A336A326A396A72
:100AD000386A376A366A256A246A236A226A8E95DA
:100AE000D151540A11E0070AD8B4A6D0150AD8B4D7
:100AF00036D1040AD8B4CAD1100AD8B45AD21E0AC0
:100B0000D8B485D32EEF0AF0166AF2BE168EF29E86
:100B100001014D6B4C6B480E4B6F850E4A6FD5C073
:100B200051F1D4C050F1D3C04FF1D2C04EF1000109
:100B3000C7EC00F016BEF28E00C0D6F001C0D7F0B0
:100B400002C0D8F003C0D9F0166AF2BE168EF29E2B
:100B500003C051F102C050F101C04FF100C04EF18D
:100B60000101556B546B7A0E536F860E526F000164
:100B70005DEC01F016BEF28E03C0E1F002C0E0F0C1
:100B800001C0DFF000C0DEF075DF03C03DF002C041
:100B90003CF001C03BF000C03AF0166AF2BE168E7F
:100BA000F29E01014D6B4C6B480E4B6F850E4A6FE8
:100BB000D5C051F1D4C050F1D3C04FF1D2C04EF1E5
:100BC0000001C7EC00F016BEF28E00C0D6F001C0E6
:100BD000D7F002C0D8F003C0D9F0166AF2BE168E64
:100BE000F29E03C051F102C050F101C04FF100C0AC
:100BF0004EF10101556B546B7A0E536F860E526F96
:100C000000015DEC01F016BEF28E03C0E1F002C0FF
:100C1000E0F001C0DFF000C0DEF02CDF03C029F0FF
:100C200002C028F001C027F000C026F0316A306A07
:100C30002F6A2E6A2FEF0AF0166AF2BE168EF29E07
:100C400001014D6B4C6B480E4B6F850E4A6FD5C042
:100C500051F1D4C050F1D3C04FF1D2C04EF10001D8
:100C6000C7EC00F016BEF28E00C0D6F001C0D7F07F
:100C700002C0D8F003C0D9F0166AF2BE168EF29EFA
:100C800003C051F102C050F101C04FF100C04EF15C
:100C90000101556B546B7A0E536F860E526F000133
:100CA0005DEC01F016BEF28E03C0E1F002C0E0F090
:100CB00001C0DFF000C0DEF0DDDE03C03DF002C0A9
:100CC0003CF001C03BF000C03AF0166AF2BE168E4E
:100CD000F29E01014D6B4C6B480E4B6F850E4A6FB7
:100CE000D5C051F1D4C050F1D3C04FF1D2C04EF1B4
:100CF0000001C7EC00F016BEF28E00C0D6F001C0B5
:100D0000D7F002C0D8F003C0D9F0166AF2BE168E32
:100D1000F29E03C051F102C050F101C04FF100C07A
:100D20004EF10101556B546B7A0E536F860E526F64
:100D300000015DEC01F016BEF28E03C0E1F002C0CE
:100D4000E0F001C0DFF000C0DEF094DE03C029F067
:100D500002C028F001C027F000C026F080D3166A38
:100D6000F2BE168EF29E01014D6B4C6B480E4B6F1E
:100D7000850E4A6FD5C051F1D4C050F1D3C04FF1A8
:100D8000D2C04EF10001C7EC00F016BEF28E00C0DA
:100D9000D6F001C0D7F002C0D8F003C0D9F0166A6F
:100DA000F2BE168EF29E03C051F102C050F101C096
:100DB0004FF100C04EF10101556B546B7A0E536F29
:100DC000860E526F00015DEC01F016BEF28E03C07C
:100DD000E1F002C0E0F001C0DFF000C0DEF04ADE6A
:100DE00003C03DF002C03CF001C03BF000C03AF04F
:100DF000166AF2BE168EF29E01014D6B4C6B480EC8
:100E00004B6F850E4A6FD5C051F1D4C050F1D3C09D
:100E10004FF1D2C04EF10001C7EC00F016BEF28EC9
:100E200000C0D6F001C0D7F002C0D8F003C0D9F09E
:100E3000166AF2BE168EF29E03C051F102C050F146
:100E400001C04FF100C04EF10101556B546B7A0E99
:100E5000536F860E526F00015DEC01F016BEF28EEC
:100E600003C0E1F002C0E0F001C0DFF000C0DEF03E
:100E700001DE03C029F002C028F001C027F000C045
:100E800026F0316A306A2F6A2E6AE9D2166AF2BEFB
:100E9000168EF29E01014D6B4C6BC80E4B6F850E8A
:100EA0004A6FD5C051F1D4C050F1D3C04FF1D2C078
:100EB0004EF10001C7EC00F016BEF28E00C0D6F075
:100EC00001C0D7F002C0D8F003C0D9F0166AF2BE54
:100ED000168EF29E03C051F102C050F101C04FF1D5
:100EE00000C04EF10101556B546B7A0E536F860EA4
:100EF000526F00015DEC01F016BEF28E03C0E1F00E
:100F000002C0E0F001C0DFF000C0DEF0B3DD03C0DE
:100F10003DF002C03CF001C03BF000C03AF0166A60
:100F2000F2BE168EF29E01014D6B4C6BC80E4B6FDC
:100F3000850E4A6FD5C051F1D4C050F1D3C04FF1E6
:100F4000D2C04EF10001C7EC00F016BEF28E00C018
:100F5000D6F001C0D7F002C0D8F003C0D9F0166AAD
:100F6000F2BE168EF29E03C051F102C050F101C0D4
:100F70004FF100C04EF10101556B546B7A0E536F67
:100F8000860E526F00015DEC01F016BEF28E03C0BA
:100F9000E1F002C0E0F001C0DFF000C0DEF06ADD89
:100FA00003C029F002C028F001C027F000C026F0DD
:100FB00056D2D2C0D6F0D351800AD76FD4C0D8F061
:100FC000D5C0D9F0166AF2BE168EF29ED5C04DF18C
:100FD000D4C04CF1E8CF4BF1D2C04AF10101516BC2
:100FE000506B200E4F6F820E4E6F0001C7EC00F069
:100FF00016BEF28E00C0D6F001C0D7F002C0D8F005
:1010000003C0D9F0166AF2BE168EF29E03C04DF1EF
:1010100002C04CF101C04BF100C04AF1560E010173
:10102000516F0E0E506F490E4F6F800E4E6F0001C4
:10103000C7EC00F016BEF28E00C0D6F001C0D7F0AB
:1010400002C0D8F003C0D9F0166AF2BE168EF29E26
:1010500003C051F102C050F101C04FF100C04EF188
:101060000101556B546B340E536F860E526F0001A5
:101070005DEC01F016BEF28E03C0D0F002C0CFF0DE
:1010800001C0CEF000C0CDF0166AF2BE168EF29E00
:10109000D0C04DF1CFC04CF1CEC04BF1CDC04AF124
:1010A0000101516B506B480E4F6F860E4E6F000161
:1010B000C7EC00F016BEF28E166AF2BE168EF29ED5
:1010C00001014D6B4C6BC80E4B6F850E4A6F03C010
:1010D00051F102C050F101C04FF100C04EF10001CA
:1010E000C7EC00F016BEF28E00C0D6F001C0D7F0FB
:1010F00002C0D8F003C0D9F0166AF2BE168EF29E76
:1011000003C051F102C050F101C04FF100C04EF1D7
:101110000101556B546B7A0E536F860E526F0001AE
:101120005DEC01F016BEF28E03C0E1F002C0E0F00B
:1011300001C0DFF000C0DEF09DDC03C03DF002C066
:101140003CF001C03BF000C03AF0166AF2BE168EC9
:10115000F29ED0C04DF1CFC04CF1CEC04BF1CDC00E
:101160004AF10101516B506B480E4F6F860E4E6F66
:101170000001C7EC00F016BEF28E166AF2BE168EA3
:10118000F29E01014D6B4C6B480E4B6F850E4A6F02
:1011900003C051F102C050F101C04FF100C04EF147
:1011A0000001C7EC00F016BEF28E00C0D6F001C000
:1011B000D7F002C0D8F003C0D9F0166AF2BE168E7E
:1011C000F29E03C051F102C050F101C04FF100C0C6
:1011D0004EF10101556B546B7A0E536F860E526FB0
:1011E00000015DEC01F016BEF28E03C0E1F002C01A
:1011F000E0F001C0DFF000C0DEF03CDC03C029F00D
:1012000002C028F001C027F000C026F028D1166ADD
:10121000F2BE168EF29E01014D6B4C6B200E4B6F91
:10122000820E4A6FD5C051F1D4C050F1D3C04FF1F6
:10123000D2C04EF10001C7EC00F016BEF28E00C025
:10124000D6F001C0D7F002C0D8F003C0D9F0166ABA
:10125000F2BE168EF29E03C04DF102C04CF101C0E9
:101260004BF100C04AF1560E0101516F0E0E506F46
:10127000490E4F6F800E4E6F0001C7EC00F016BE96
:10128000F28E00C0D6F001C0D7F002C0D8F003C083
:10129000D9F0166AF2BE168EF29E03C051F102C05A
:1012A00050F101C04FF100C04EF10101556B546B7C
:1012B000340E536F860E526F00015DEC01F016BEC6
:1012C000F28E03C0D0F002C0CFF001C0CEF000C05B
:1012D000CDF0166AF2BE168EF29ED0C04DF1CFC090
:1012E0004CF1CEC04BF1CDC04AF10101516B506BB6
:1012F000480E4F6F860E4E6F0001C7EC00F016BE11
:10130000F28E166AF2BE168EF29E01014D6B4C6B88
:10131000C80E4B6F850E4A6F03C051F102C050F1E9
:1013200001C04FF100C04EF10001C7EC00F016BE45
:10133000F28E00C0D6F001C0D7F002C0D8F003C0D2
:10134000D9F0166AF2BE168EF29E03C051F102C0A9
:1013500050F101C04FF100C04EF10101556B546BCB
:101360007A0E536F860E526F00015DEC01F016BECF
:10137000F28E03C0E1F002C0E0F001C0DFF000C077
:10138000DEF03AEC05F003C03DF002C03CF001C0D5
:101390003BF000C03AF0166AF2BE168EF29ED0C044
:1013A0004DF1CFC04CF1CEC04BF1CDC04AF101019F
:1013B000516B506B480E4F6F860E4E6F0001C7EC9D
:1013C00000F016BEF28E166AF2BE168EF29E010173
:1013D0004D6B4C6B480E4B6F850E4A6F03C051F13D
:1013E00002C050F101C04FF100C04EF10001C7EC46
:1013F00000F016BEF28E00C0D6F001C0D7F002C0D9
:10140000D8F003C0D9F0166AF2BE168EF29E03C061
:1014100051F102C050F101C04FF100C04EF1010185
:10142000556B546B7A0E536F860E526F00015DEC54
:1014300001F016BEF28E03C0E1F002C0E0F001C080
:10144000DFF000C0DEF03AEC05F003C029F002C086
:1014500028F001C027F000C026F001D000D0D2EF64
:1014600014F0B60E006E036A026A016ADD91DCAF09
:101470000CD0DD81D91FDA1FDB1FDC1FD92B05E162
:10148000DA2B03E1DB2BD8B4DC2BD951DA11DB11D9
:10149000DC1102E1006A0FD0D89001BE09D0D93723
:1014A000DA37DB37DC37033602360136002EF4D765
:1014B000019EDDB1018E000C8E0E006E01011351F4
:1014C000005E14C102F015C101F0028E005209E065
:1014D000D890025202E1015204E002320132002EA1
:1014E000F7D714AF05D0011E021E012AD8B4022A74
:1014F0000001000C8282D26BD16BD46BD36BD66BA4
:10150000D56BD86BD76B2250265C4E6E2350275874
:101510004F6E24502858506E25502958516E4E5009
:1015200042264F50432250504422515045224A50A7
:101530004E5C466E4B504F58476E4C505058486E5C
:101540004D505158496E51C04DF050C04CF04FC0F5
:101550004BF04EC04AF051C0DCF050C0DBF04FC041
:10156000DAF04EC0D9F07DDF166AF2BE168EF29E1A
:1015700065C04DF164C04CF163C04BF162C04AF1EB
:1015800003C051F102C050F101C04FF100C04EF153
:10159000C7EC00F016BEF28E03C016F102C015F1C2
:1015A00001C014F100C013F187DF02C0D2F001C006
:1015B000D1F045C0DCF044C0DBF043C0DAF042C0FB
:1015C000D9F04FDF166AF2BE168EF29E6DC04DF155
:1015D0006CC04CF16BC04BF16AC04AF103C051F1D1
:1015E00002C050F101C04FF100C04EF1C7EC00F055
:1015F00016BEF28E03C016F102C015F101C014F13F
:1016000000C013F159DF02C0D4F001C0D3F049C0CB
:10161000DCF048C0DBF047C0DAF046C0D9F021DF8B
:10162000166AF2BE168EF29E69C04DF168C04CF18A
:1016300067C04BF166C04AF103C051F102C050F1DE
:1016400001C04FF100C04EF1C7EC00F016BEF28EA3
:1016500003C016F102C015F101C014F100C013F16E
:101660002BDF02C0D6F001C0D5F0D351D125D96F00
:10167000D451D221DA6FD551D925D76FD651DA217D
:10168000D86FD8BF0CD0D851020809E2FF0A03E195
:10169000D751E80804E2030ED86FE80ED76FD8AF31
:1016A0000BD0D851FC0808E303E1D751170804E335
:1016B000FC0ED86F180ED76FD8BF1AD0D85303E1DD
:1016C000D751000815E28480D8C002F0D7C001F0DD
:1016D0000232013202320132023201C0BEFF023256
:1016E0000230300B006EBD50CF0B0010BD6E32D0FB
:1016F0008490D8C003F0D751D8AF08D0000ED8805E
:10170000D755006E000ED855036E0050006E03C012
:1017100001F0026A036A01AE02D00206030603C0AA
:101720002DF002C02CF001C02BF000C02AF02BC01D
:1017300002F02AC001F002320132023201320232DA
:1017400001C0BEFF02320230300B006EBD50CF0B25
:101750000010BD6E90514C0803E09051520826E1F4
:1017600051AE12D05150FE081FE2FF0A0DE1505059
:10177000FE081AE2FF0A08E14F50FE0815E2FF0AD0
:1017800003E14E509C0810E251BE09D051520CE1C9
:1017900050520AE14F5208E14E50630805E384902D
:1017A0008292BE6A8E8101D08E9125D051AE12D028
:1017B0005150FE081FE2FF0A0DE15050FE081AE2E8
:1017C000FF0A08E14F50FE0815E2FF0A03E14E5000
:1017D000D80810E251BE09D051520CE150520AE132
:1017E0004F5208E14E50270805E384908292BE6A6A
:1017F0008E8101D08E9155EF12F08284D26BD16B25
:10180000D46BD36BD66BD56BD86BD76B36503A5C39
:101810005E6E37503B585F6E38503C58606F3950A1
:101820003D58616F5E5052265F50532260515422E2
:10183000615155225A505E5C566E5B505F58576E30
:101840005C506059586E5D506159596E61C05DF0D1
:1018500060C05CF05FC05BF05EC05AF061C0DCF05D
:1018600060C0DBF05FC0DAF05EC0D9F0FADD166A66
:10187000F2BE168EF29E71C04DF170C04CF16FC079
:101880004BF16EC04AF103C051F102C050F101C0EA
:101890004FF100C04EF1C7EC00F016BEF28E03C04F
:1018A00016F102C015F101C014F100C013F104DEFD
:1018B00002C0D2F001C0D1F055C0DCF054C0DBF062
:1018C00053C0DAF052C0D9F0CCDD166AF2BE168EE3
:1018D000F29E79C04DF178C04CF177C04BF176C0E3
:1018E0004AF103C051F102C050F101C04FF100C0F4
:1018F0004EF1C7EC00F016BEF28E03C016F102C026
:1019000015F101C014F100C013F1D6DD02C0D4F00E
:1019100001C0D3F059C0DCF058C0DBF057C0DAF09A
:1019200056C0D9F09EDD166AF2BE168EF29E75C0C4
:101930004DF174C04CF173C04BF172C04AF103C059
:1019400051F102C050F101C04FF100C04EF1C7EC9F
:1019500000F016BEF28E03C016F102C015F101C0F0
:1019600014F100C013F1A8DD02C0D6F001C0D5F01B
:10197000D351D125D96FD451D221DA6FD551D92580
:10198000D76FD651DA21D86FD8BF0CD0D851020802
:1019900009E2FF0A03E1D751E80804E2030ED86F19
:1019A000E80ED76FD8AF0BD0D851FC0808E303E19D
:1019B000D751170804E3FC0ED86F180ED76FD8BFA5
:1019C0001BD0D85303E1D751000816E289808484E4
:1019D000D8C002F0D7C001F0023201320232013227
:1019E000023201C0BBFF02320230300B006EBA502F
:1019F000CF0B0010BA6E32D08494D8C003F0D75108
:101A0000D8AF08D0000ED880D755006E000ED8553C
:101A1000036E0050006E03C001F0026A036A01AE5B
:101A200002D00206030603C041F002C040F001C02C
:101A30003FF000C03EF03FC002F03EC001F0023275
:101A4000013202320132023201C0BBFF02320230E7
:101A5000300B006EBA50CF0B0010BA6E90514C088C
:101A600003E09051520826E161AF12D06151FE08A7
:101A70001FE2FF0A0DE16051FE081AE2FF0A08E1C9
:101A80005F50FE0815E2FF0A03E15E509C0810E279
:101A900061BF09D061530CE160530AE15F5208E174
:101AA0005E50630805E382948494BB6A8E8301D000
:101AB0008E9325D061AF12D06151FE081FE2FF0A5C
:101AC0000DE16051FE081AE2FF0A08E15F50FE08CE
:101AD00015E2FF0A03E15E50D80810E261BF09D0A9
:101AE00061530CE160530AE15F5208E15E50270840
:101AF00005E384948294BB6A8E8301D08E9357EF62
:101B000012F014C11BF1010118511B1B1BAF05D0B2
:101B1000D894D89014BFD8802FD014C11BF117C10E
:101B20001CF113511C5F06E01BAF26D0D850010AF0
:101B3000D86E22D018C11CF114511C5F06E01BAFF7
:101B40001BD0D850010AD86E17D019C11CF11551FD
:101B50001C5F06E01BAF10D0D850010AD86E0CD025
:101B60001AC11CF116511C5F06E01BAF05D0D850FE
:101B7000010AD86E01D0D8900001000CF46BF36B11
:101B8000F26B7F0EF16F7E0EFB6F800EFC6FFD6BB4
:101B9000FE6B7A0EFF6F2A0E0101006FAA0E016F15
:101BA000AB0E026F750E036FB60E046F0B0E056F52
:101BB000610E066F6F0E076F500E086F0D0E096FE6
:101BC000010E0A6F690E0B6F930E0C6FF20E0D6F04
:101BD0007E0E0E6F620E0F6F0F0E106F760E116F6E
:101BE000AE0E126FE8C016F1E7C015F1E6C014F1B1
:101BF000E5C013F11A6B196B186B176B000181DFCD
:101C000003E3E651800AE66F166AF2BE168EF29E74
:101C1000E8C051F1E7C050F1E6C04FF1E5C04EF128
:101C2000DB0E0101556F0F0E546F490E536F7F0E7F
:101C3000526F00015DEC01F016BEF28E03C016F18A
:101C400002C015F101C014F100C013F135DC01C070
:101C5000F5F0166AF2BE168EF29EE8C051F1E7C0AA
:101C600050F1E6C04FF1E5C04EF1DB0E0101556FBA
:101C70000F0E546F490E536F7F0E526F00015DECD3
:101C800001F016BEF28E00C013F101C014F102C0C3
:101C900015F103C016F1166AF2BE168EF29E01010E
:101CA0004F6BF5C04EF1000142EC01F016BEF28E12
:101CB000D882166AF2BE168EF29E16C151F115C177
:101CC00050F114C14FF113C14EF103C055F102C0E0
:101CD00054F101C053F100C052F10CEC02F016BEF9
:101CE000F28E03C0FAF002C0F9F001C0F8F000C0B3
:101CF000F7F0030EF517F55303E0F551020823E161
:101D0000166AF2BE168EF29EFAC04DF1F9C04CF181
:101D1000F8C04BF1F7C04AF1DB0E0101516F0F0E15
:101D2000506F490E4F6F7F0E4E6F0001C7EC00F0F1
:101D300016BEF28E03C0F0F002C0EFF001C0EEF06C
:101D400000C0EDF087D0F52D43D0D882166AF2BEE0
:101D5000168EF29E0101516B506B4F6B7F0E4E6FD2
:101D6000FAC055F1F9C054F1F8C053F1F7C052F17F
:101D700000010CEC02F016BEF28E00C013F101C09F
:101D800014F102C015F103C016F1166AF2BE168EE8
:101D9000F29E03C04DF102C04CF101C04BF100C0F6
:101DA0004AF1DB0E0101516F0F0E506F490E4F6F5C
:101DB0007F0E4E6F0001C7EC00F016BEF28E03C01E
:101DC000F0F002C0EFF001C0EEF000C0EDF042D044
:101DD000D882166AF2BE168EF29EFAC051F1F9C090
:101DE00050F1F8C04FF1F7C04EF10101556B546B43
:101DF000536B7F0E526F00010CEC02F016BEF28E98
:101E000000C013F101C014F102C015F103C016F1B6
:101E1000166AF2BE168EF29E03C04DF102C04CF15E
:101E200001C04BF100C04AF1DB0E0101516F0F0EF2
:101E3000506F490E4F6F7F0E4E6F0001C7EC00F0E0
:101E400016BEF28E03C0F0F002C0EFF001C0EEF05B
:101E500000C0EDF0EC6BEB6BEA6B7F0EE96F166A7E
:101E6000F2BE168EF29EF0C04DF1EFC04CF1EEC006
:101E70004BF1EDC04AF1F0C051F1EFC050F1EEC0AE
:101E80004FF1EDC04EF1C7EC00F016BEF28E03C06C
:101E9000F0F002C0EFF001C0EEF000C0EDF0F66B24
:101EA000F651050874E3166AF2BE168EF29EF4C06F
:101EB0004DF1F3C04CF1F2C04BF1F1C04AF1F0C06A
:101EC00051F1EFC050F1EEC04FF1EDC04EF1C7EC53
:101ED00000F016BEF28E03C0F4F002C0F3F001C0B1
:101EE000F2F000C0F1F0F651040DF350036AFB0F5D
:101EF000E96E000E0320EA6EEFCF13F1ECCF14F180
:101F0000ECCF15F1ECCF16F1166AF2BE168EF29EEA
:101F100016C14DF115C14CF114C14BF113C14AF179
:101F2000F4C051F1F3C050F1F2C04FF1F1C04EF1E5
:101F3000C7EC00F016BEF28EEACF14F1E9CF13F130
:101F4000D892166AF2BE168EF29EECC051F1EBC02A
:101F500050F1EAC04FF1E9C04EF103C055F102C0A3
:101F600054F101C053F100C052F10CEC02F016BE66
:101F7000F28E14C1EAFF13C1E9FF03C0ECF002C006
:101F8000EBF001C0EAF000C0E9F0F62B89D7F5517B
:101F9000020802E0F52D03D0EA51800AEA6FE9C099
:101FA00000F0EAC001F0EBC002F0ECC003F0000C5E
:101FB000D882166AF2BE168EF29EE0C051F1DFC0E2
:101FC00050F1DEC04FF1DDC04EF1DB0E0101556F67
:101FD0000F0E546F490E536F7F0E526F00010CECC1
:101FE00002F016BEF28E00C0E1F001C0E2F002C0C5
:101FF000E3F003C0E4F003C0E8F002C0E7F001C082
:10200000E6F000C0E5F0BADDDDEF10F0166AF2BED2
:10201000168EF29E7DC04DF17CC04CF17BC04BF121
:102020007AC04AF1DB0E0101516F0F0E506F490E5D
:102030004F6F800E4E6F0001C7EC00F016BEF28E9F
:1020400000C0D9F001C0DAF002C0DBF003C0DCF060
:10205000166AF2BE168EF29E03C051F102C050F114
:1020600001C04FF100C04EF10101556B546B340EAD
:10207000536F860E526F00015DEC01F016BEF28EBA
:1020800000C0D9F001C0DAF002C0DBF003C0DCF020
:1020900003C0E8F002C0E7F001C0E6F000C0E5F0E0
:1020A0006DDD166AF2BE168EF29ED8C04DF1D7C015
:1020B0004CF1D6C04BF1D5C04AF103C051F102C07A
:1020C00050F101C04FF100C04EF1C7EC00F016BE58
:1020D000F28EEACFDAF0E9CFD9F0D892166AF2BEE2
:1020E000168EF29E89C051F188C050F187C04FF121
:1020F00086C04EF103C055F102C054F101C053F146
:1021000000C052F10CEC02F016BEF28EDAC0EAFF0B
:10211000D9C0E9FF03C081F002C080F001C07FF0A8
:1021200000C07EF0166AF2BE168EF29E7DC04DF1A2
:102130007CC04CF17BC04BF17AC04AF1DB0E01014F
:10214000516F0F0E506F490E4F6F800E4E6F000192
:10215000C7EC00F016BEF28E00C0D9F001C0DAF074
:1021600002C0DBF003C0DCF0166AF2BE168EF29EEF
:1021700003C051F102C050F101C04FF100C04EF157
:102180000101556B546B340E536F860E526F000174
:102190005DEC01F016BEF28E00C0D9F001C0DAF09D
:1021A00002C0DBF003C0DCF003C0E0F002C0DFF0EF
:1021B00001C0DEF000C0DDF0FBD6166AF2BE168E5E
:1021C000F29ED8C04DF1D7C04CF1D6C04BF1D5C06E
:1021D0004AF103C051F102C050F101C04FF100C0FB
:1021E0004EF1C7EC00F016BEF28EEACFDAF0E9CF7E
:1021F000D9F0D892166AF2BE168EF29E8DC051F1B9
:102200008CC050F18BC04FF18AC04EF103C055F124
:1022100002C054F101C053F100C052F10CEC02F0C5
:1022200016BEF28EDAC0EAFFD9C0E9FF03C085F01E
:1022300002C084F001C083F000C082F081C089F048
:1022400080C088F07FC087F07EC086F085C08DF0AA
:1022500084C08CF083C08BF082C08AF0000CB60E74
:10226000006E036A026A016AD151D211D311D411EE
:1022700002E1006A0DD0D89001BE09D0D137D23723
:10228000D337D437033602360136002EF4D7019EF9
:10229000000C006A016A026A036AE66BE76BE86B8E
:1022A000E96BE551E411E311E2112CE0200EEA6F35
:1022B000D890DE37DF37E037E137E637E737E83702
:1022C000E937E551E95D08E1E451E85D05E1E351F5
:1022D000E75D02E1E251E65D0FE3E251E65FE351C3
:1022E000D8A0E33DE75FE451D8A0E43DE85FE551C5
:1022F000D8A0E53DE95FD8800036013602360336C6
:10230000EA2FD6D7EA6AE60EE96E000CE950D66FDE
:10231000D551D86F22E0166AF2BE168EF29ED4C056
:102320004DF1D3C04CF1D2C04BF1D1C04AF1010103
:10233000516B506B200E4F6F820E4E6F0001C7EC39
:1023400000F016BEF28E03C0D4F002C0D3F001C07C
:10235000D2F000C0D1F0D82FDED7D4C0E1F0D3C086
:10236000E0F0D2C0DFF0D1C0DEF03AEC05F003C0FF
:10237000D4F002C0D3F001C0D2F000C0D1F0D4AF8D
:102380000DD0D607D68BD11FD21FD31FD41FD12B70
:10239000D8B4D22BD8B4D32BD8B4D42B3B0EDD6F0A
:1023A0009A0EDC6FCA0EDB6FDA6B0A0ED86FD5514E
:1023B000D8B4D62BD4C0E1F0D3C0E0F0D2C0DFF067
:1023C000D1C0DEF0DDC0E5F0DCC0E4F0DBC0E3F05E
:1023D000DAC0E2F05EDF0150EFCFD1F0ECCFD2F007
:1023E000ECCFD3F0ECCFD4F000520FE1D529D85D7B
:1023F0000CE0D6510CE00F0BD85D01E03BE2D6BFFC
:1024000039D0D6BD04D0200E30D0200ED617D6AB92
:102410000DD0D69BD551D8A4D6070050D66F2D0E1F
:102420009EA8FED7AD6ED651006ED66BD551D85D45
:102430000BE10050D66F2E0E9EA8FED7AD6ED65182
:10244000006E200ED617000E300ED6AB0ED0D69BE7
:10245000D551D8A4D6070050D66F2D0E9EA8FED712
:10246000AD6ED651006ED66B300E002600509EA881
:10247000FED7AD6EDDC0E1F0DCC0E0F0DBC0DFF028
:10248000DAC0DEF0E56BE46BE36B0A0EE26F01DFAE
:1024900003C0DDF002C0DCF001C0DBF000C0DAF008
:1024A000D82F88D7000C7AEF0AF0FDEF0BF08EA141
:1024B0009AD18EA398D18EB796D19051520823E12C
:1024C000D882166AF2BE168EF29E7DC051F17CC093
:1024D00050F17BC04FF17AC04EF1CCC055F1CBC06A
:1024E00054F1CAC053F1C9C052F10CEC02F016BE4F
:1024F000F28E03C07DF002C07CF001C07BF000C012
:102500007AF0906B49D090514C0823E1D892166A2A
:10251000F2BE168EF29E7DC051F17CC050F17BC0A0
:102520004FF17AC04EF1CCC055F1CBC054F1CAC0C6
:1025300053F1C9C052F10CEC02F016BEF28E03C08A
:102540007DF002C07CF001C07BF000C07AF0906B9F
:1025500023D0905146080BE1CCC0D8F0CBC0D7F0C7
:10256000CAC0D6F0C9C0D5F051DD906B15D09051DE
:10257000420812E1C9C0D1F0CA51800AD26FCBC063
:10258000D3F0CCC0D4F0CCC0D8F0CBC0D7F0D66F4D
:10259000C9C0D5F03BDD906B0101166B156B340E95
:1025A000146F870E136F7DC01AF17CC019F17BC0C8
:1025B00018F17AC017F1000181EC0DF001E221E180
:1025C000D882166AF2BE168EF29E7DC051F17CC092
:1025D00050F17BC04FF17AC04EF10101556B546B45
:1025E000340E536F870E526F00010CEC02F016BED2
:1025F000F28E03C07DF002C07CF001C07BF000C011
:102600007AF07DC016F17CC015F17BC014F17AC060
:1026100013F101011A6B196B186B176B000181EC38
:102620000DF021E3D892166AF2BE168EF29E7DC09E
:1026300051F17CC050F17BC04FF17AC04EF10101E5
:10264000556B546B340E536F870E526F00010CECB8
:1026500002F016BEF28E03C07DF002C07CF001C015
:102660007BF000C07AF081C0E1F080C0E0F07FC074
:10267000DFF07EC0DEF03AEC05F003C0D4F002C01B
:10268000D3F001C0D2F000C0D1F0E9DD03C081F089
:1026900002C080F001C07FF000C07EF085C0E1F094
:1026A00084C0E0F083C0DFF082C0DEF03AEC05F0D9
:1026B00003C0D4F002C0D3F001C0D2F000C0D1F00A
:1026C000CEDD03C085F002C084F001C083F000C0FD
:1026D00082F07DC0E1F07CC0E0F07BC0DFF07AC02A
:1026E000DEF03AEC05F003C0D4F002C0D3F001C034
:1026F000D2F000C0D1F0B3DD03C07DF002C07CF0A9
:1027000001C07BF000C07AF0580E9EA8FED7AD6ED7
:10271000890EE96E81C0D4F080C0D3F07FC0D2F0C2
:102720007EC0D1F0020ED56FF1DD590E9EA8FED706
:10273000AD6E890EE96E85C0D4F084C0D3F083C03D
:10274000D2F082C0D1F0020ED56FE0DD5A0E9EA805
:10275000FED7AD6E890EE96E7DC0D4F07CC0D3F09B
:102760007BC0D2F07AC0D1F0020ED56FCFDD420E21
:102770009EA8FED7AD6E580E9EA8FED7AD6E890EF0
:10278000E96E81C0D4F080C0D3F07FC0D2F07EC0AB
:10279000D1F0020ED56FBADD590E9EA8FED7AD6EF0
:1027A000890EE96E85C0D4F084C0D3F083C0D2F026
:1027B00082C0D1F0020ED56FA9DD5A0E9EA8FED7B9
:1027C000AD6E890EE96E7DC0D4F07CC0D3F07BC0C5
:1027D000D2F07AC0D1F0020ED56F98DD420E9EA8DD
:1027E000FED7AD6E8E87D3EF14F0F86AD09E078EB9
:1027F000EA6AE96AB886810EAF6E000EB06EA60E68
:10280000AC6E900EAB6E216A206A1F6A1E6A256A42
:10281000246A236A226A296A286A276A266A2D6A34
:102820002C6A2B6A2A6A356A346A336A326A396AD0
:10283000386A376A366A3D6A3C6A3B6A3A6A416A74
:10284000406A3F6A3E6A456A446A436A426A496A24
:10285000486A476A466A4D6A4C6A4B6A4A6A516AD4
:10286000506A4F6A4E6A556A546A536A526A596A84
:10287000586A576A566A5D6A5C6A5B6A5A6A616B33
:10288000606B5F6A5E6A656B646B480E636F850E92
:10289000626F696B686B100E676F820E666F170E42
:1028A0006D6FB70E6C6F510E6B6F710E6A6F716B3F
:1028B000706B480E6F6F850E6E6F756B746B100EBC
:1028C000736F820E726F170E796FB70E786F510E9D
:1028D000776F710E766F7D6B7C6B340E7B6F840E21
:1028E0007A6F816B806B7F6B7E6B856B846B836B88
:1028F000826B896B886B876B866B8D6B8C6B8B6B3C
:102900008A6B8E818E838E958E978E99C36BC15004
:10291000C00B0F09C16E070EB46E176A186A1D6AE4
:10292000916BFF0E956E000E926EFF0E936E000E71
:10293000966E946EC150C00B0F09C16E850ECD6EA0
:10294000C50ECF6E670ECE6E000E0509CA6EFF0E65
:10295000CB6E94928B9294948B9494948B94969C3B
:102960000C0EBD6EB76AB66A94928B92BA6EBE6A4E
:10297000BB6A9D8AF086F088F19AF1989D80C00E1E
:10298000F2128282828489908EA90ED090C0D1F0FA
:10299000CCC0D5F0CBC0D4F0CAC0D3F0C9C0D2F0FF
:0C29A00059EF05F080D58E99EFD70300A9
:020000040030CA
:0E00000024CC391E008781000FC00FE00F4096
:00000001FF
;PIC18F4550
;CRC=D138  CREATED="25-Oct-15 20:17"
