:0400000098EF13F072
:08000800046ED8CF05F0E0CF33
:1000100006F00001E9CF0CF0EACF07F0E1CF08F0DD
:10002000E2CF09F0D9CF0AF0DACF0BF0F3CF12F01C
:10003000F4CF13F0FACF14F000C00EF001C00FF0AF
:1000400002C010F003C011F09DA02AEF00F09EB096
:100050006EEF06F0F0A630EF00F0F0B012EF06F011
:10006000F0A836EF00F0F0B232EF06F09DAA3CEFB8
:1000700000F09EBAA8EF05F00EC000F00FC001F02E
:1000800010C002F011C003F00CC0E9FF07C0EAFF86
:10009000078E08C0E1FF09C0E2FF0AC0D9FF0BC00C
:1000A000DAFF12C0F3FF13C0F4FF14C0FAFF0450CC
:1000B00006C0E0FF05C0D8FF10009EAAFED7ABCF58
:1000C0001DF0AECF01F01DA202D0AB98AB88AAEF15
:1000D00005F09EA8FED7AD6ECAEF05F037C139F125
:1000E00036C138F139C103F0010138C1E9FF39C126
:1000F000EAFFEF5206E0382BD8B4392B0001F2D7D3
:1001000001013651385D006E37513959036E00C018
:1001100001F00001D1EF05F038C13DF137C13CF1EC
:1001200001013B5324E03AC103F039C1E9FF3AC170
:10013000EAFFEF521CE03DC103F03C513C2BD8B428
:100140003D2B3E6F03C03FF13AC103F03951392BCB
:10015000D8B43A2BE96E03C0EAFFEFCF40F13FC1BC
:10016000EAFF3EC1E9FF40C1EFFF3B07DAD73B534F
:100170000CE03DC103F03C513C2BD8B43D2BE96E63
:1001800003C0EAFFEF6A3B07F2D737C101F038C17D
:1001900002F00001E1EF05F001014551D8B471D042
:1001A000006E4951D8B46DD0002604E3810E0026BC
:1001B00068E204D07F0E005E64E363E046C14DF167
:1001C0004A514D1B468F4A8F48514C03F4CF4FF193
:1001D00047514B03F4CF03F0F3CF4EF14C03F350F0
:1001E0004F27F4504E23000E032248514B03F35087
:1001F0004F27F4504E23000E026A0322022246517A
:100200004C03F3504E27F4500322000E02224651B5
:100210004B03F3500326F4500222000E016A012220
:1002200048514A03F3504E27F4500322000E022295
:10023000012247514A03F3500326F4500222000ED4
:10024000012246514A03F3500226F4500122002AAB
:1002500001BE05D04E370336023601360006000EC9
:100260004EAF0AD0032A02220122015005E10250BA
:1002700003E1035001E1002A4DBF018E4DAF019E05
:1002800004D0006A016A026A036A0001000C8E0E43
:10029000006E4AC101F049C102F0036A015209E14E
:1002A00002C001F0026A080E005E015202E1006A1B
:1002B00008D0D89001BE04D0023601360006F9D726
:1002C000019E000C01014951D8B4A5D0556F4D5184
:1002D000D8B4A1D0555F05E37F0E5527D8B09BD089
:1002E00006D0810E555FD8A096D0D8B494D055C111
:1002F00000F0016A026A036A546B4AC153F1538FDA
:100300004BC152F14CC151F1190E556F5051515F13
:100310000DE2010E525F0AE2535F08E2545F06E20B
:10032000542B532B522B5051512728D04F51525FF1
:1003300012E2010E535F0FE2545F0DE2542B532B78
:100340004F5152275051512719E3522B17E1532B8C
:1003500015E1542B13D04E518009535F0EE2010E6C
:10036000545F0BE2542B4E51800953274F515227B3
:10037000E9E3532BE7E1542BE5D70380552F01D058
:100380000BD0D8905137523753375437D890033663
:10039000023601365637BAD756A106D0D890013268
:1003A00002320332563302D0000635E056BF1ED06B
:1003B000D89051375237533754375051515F07E275
:1003C000010E525F04E2535F02E2545F1AE34F51A1
:1003D000525F05E2010E535F02E2545F12E34E5199
:1003E0008009535F03E2010E545F0BE3032A09E126
:1003F000022A07E1012A05E1002A0DE0013202325A
:1004000003324AC155F14E51551B55AF02D0018EF2
:1004100006D0019E04D0006A016A026A036A0001E4
:10042000000C800ED8A202D001014E1B0101536BBB
:10043000546B4AC152F14E51521B4951D8B4DFD0CE
:10044000516F006E4D51D8B4E3D0515FD8B483D012
:100450003EE34EC157F1578F4FC156F150C155F190
:10046000546BD8905733563355335433512FF8D7F4
:1004700052AF03D05381E0D0539151915389010E73
:10048000EA6E4C0EE96EEBD0539952BF0AD051A1DF
:1004900013D05733563355335433002AD8B4C7D00A
:1004A0000BD057BF0CD0D8905437553756375737E5
:1004B0000006D8B4BCD0F5D7538D6DD0539D4AC13A
:1004C00052F14AAF02D0578FABD0579FA9D04DC140
:1004D00051F14DC100F04951515F4AC157F1578F59
:1004E0004BC156F14CC155F1546BD890573356332C
:1004F00055335433512FF8D752AF03D053839CD088
:1005000053935191538B010EEA6E500EE96EA7D0B2
:10051000539B52BF0AD051A113D057335633553392
:100520005433002AD8B483D00BD057BF0CD0D89006
:1005300054375537563757370006D8B478D0F5D7E3
:10054000538F29D0539F4EC152F14EAF02D0578FD7
:1005500067D0579F65D04EC157F1578F4FC156F1A5
:1005600050C155F152AF04D0579F538565D0539574
:10057000546B5191010EEA6E4C0EE96E70D052BF71
:100580001CD04AC152F151A106D0573356335533CE
:100590005433002A4CE054AF0BD0552B09E1562BB5
:1005A00007E1572B05E1573356335533002A3FE017
:1005B00053BD84D753BFC6D71CD0800E571B57AF2F
:1005C00004D03AD04EC152F10AD04AC152F1575329
:1005D00006E1565304E1555302E1006A21D057BFAA
:1005E00008D0D8905437553756375737002EF7D79D
:1005F0001ED052AF02D0578F13D0579F11D04DC18C
:1006000000F04EC157F14FC156F150C155F108D01D
:1006100049C100F04AC157F14BC156F14CC155F1E7
:1006200057C101F056C102F055C103F034D0006A41
:10063000016A026A036A2FD0546B551F561F571F59
:10064000541F542B05E1552B03E1562B01E1572B89
:1006500053B112D753B354D753B589D7B3D7EF504B
:10066000552705E3562B03E1572BD8B45181ED52A2
:10067000EF50562703E3572BD8B45181ED52EF507A
:10068000EFBE01D0800A5727D8B0518153B9FCD6AC
:1006900053BB3ED774D70001000C01013D6B3C6B8E
:1006A0003B6B7F0E3A6F416B406B3F6B3E6B428101
:1006B00042934295446B3651371105E1006A016A55
:1006C000026A036A0FD14451442B036A3625E96E4E
:1006D00037510320EA6EEFCF43F14353D8B4C5D06E
:1006E00042A10FD0435120080CE0429143512B0806
:1006F00003E14293ADD005D043512D0802E142837E
:10070000A7D042B107D043512E0804E142B502D030
:1007100042859ED042B199D043512F08D8B095D090
:1007200043513908D8A091D0300E435F42A553D031
:100730003DC148F13CC147F13BC146F13AC145F1E9
:100740004C6B4B6B200E4A6F820E496F000124DD0B
:1007500003C03DF102C03CF101C03BF100C03AF1E1
:1007600001014A6B43C149F1000191DD00C045F12F
:1007700001C046F102C047F103C048F103C04CF18B
:1007800002C04BF101C04AF100C049F13DC150F136
:100790003CC14FF13BC14EF13AC14DF193DDD892CE
:1007A00041C14CF140C14BF13FC14AF13EC149F159
:1007B00003C050F102C04FF101C04EF100C04DF135
:1007C00030DE03C041F102C040F101C03FF100C082
:1007D0003EF139D00101486B476B200E466F820E07
:1007E000456F41C14CF140C14BF13FC14AF13EC19F
:1007F00049F10001D1DC00C045F101C046F102C061
:1008000047F103C048F101014A6B43C149F10001BE
:100810003EDDD89248C14CF147C14BF146C14AF187
:1008200045C149F103C050F102C04FF101C04EF182
:1008300000C04DF1F6DD03C041F102C040F101C03E
:100840003FF100C03EF105D0010142B101D00DD011
:10085000000101014451442B036A3625E96E3751EA
:100860000320EA6EEFCF43F138D742A319D0486B8B
:10087000476B800E466F7F0E456F41C14CF140C102
:100880004BF13FC14AF13EC149F1000185DC03C093
:1008900041F102C040F101C03FF100C03EF1010151
:1008A0003851391117E044530CE0440738C1E9FFCF
:1008B00039C1EAFF44513625EF6E000E3721EC6E48
:1008C00009D038C1E9FF39C1EAFF37C1ECFFED5269
:1008D00036C1EFFF3EC100F03FC101F040C102F060
:1008E00041C103F00001EAEF05F001014351B608F0
:1008F000436F036A44C147F1448FD8904433453372
:1009000046330332023201320032432FF6D747AF6B
:100910000BD0001E011E021E031E002AD8B4012A9D
:10092000D8B4022AD8B4032A0001000C006A016A74
:10093000026A036A01014B6B4C6B4D6B4E6B4A5163
:100940004911481147112CE0200E4F6FD8904337C2
:100950004437453746374B374C374D374E374A517A
:100960004E5D08E149514D5D05E148514C5D02E1A4
:1009700047514B5D0FE347514B5F4851D8A0483D6D
:100980004C5F4951D8A0493D4D5F4A51D8A04A3DDE
:100990004E5FD88000360136023603364F2FD6D749
:1009A000010EEA6E4B0EE96E0001000CE9500101E8
:1009B0003B6F3A513D6F1CE039C148F138C147F1F6
:1009C00037C146F136C145F14C6B4B6B200E4A6F77
:1009D000820E496F0001CCEC00F003C039F102C077
:1009E00038F101C037F100C036F101013D2FE4D7E5
:1009F00039C146F138C145F137C144F136C143F13F
:100A0000000173DF03C039F102C038F101C037F1D2
:100A100000C036F1010139AF0DD03B073B8B361FCB
:100A2000371F381F391F362BD8B4372BD8B4382B83
:100A3000D8B4392B3B0E426F9A0E416FCA0E406FED
:100A40003F6B0A0E3D6F3A51D8B43B2B39C146F18A
:100A500038C145F137C144F136C143F142C14AF1D1
:100A600041C149F140C148F13FC147F100015EDF9A
:100A70000150EFCF36F1ECCF37F1ECCF38F1ECCFBE
:100A800039F1005213E101013A293D5DD8A402D0A9
:100A900000010CD03B510DE00F0B3D5D01E03CE24D
:100AA0003BBF3AD03BBD05D0200E31D0200E010116
:100AB0003B173BAB0DD03B9B3A51D8A43B070050B2
:100AC0003B6F2D0E9EA8FED7AD6E3B51006E3B6B6B
:100AD0003A513D5D0BE100503B6F2E0E9EA8FED7B4
:100AE000AD6E3B51006E200E3B17000E300E3BAB3F
:100AF0000ED03B9B3A51D8A43B0700503B6F2D0EC4
:100B00009EA8FED7AD6E3B51006E3B6B300E0026AB
:100B100000509EA8FED7AD6E42C146F141C145F1DD
:100B200040C144F13FC143F14A6B496B486B0A0E27
:100B3000476F0001FBDE03C042F102C041F101C07A
:100B400040F100C03FF101013D2F80D70001000CB2
:100B50005DEF00F001C098F0985141080AE1CB6BBD
:100B6000036A990E010103C0EAFFE96EEF6A56D0ED
:100B700000019851430847E1CB51CB2B036A990FF1
:100B8000E96E000E0320EA6EEF6A99C03AF03A501F
:100B900069EF00F00101376B990E366F00016EEFBF
:100BA00000F0010E015C0101366F010E386F220E5C
:100BB000376F3A6B9A0E396F36C13BF100018CEFFB
:100BC00000F0010E0101376F220E366F396B386B62
:100BD000000163D503C057F002C056F001C055F0C4
:100BE00000C054F0890EE96E57C039F156C038F193
:100BF00055C037F154C036F1020E01013A6F0001C1
:100C0000D5DE3B880AD0CB51CB2B036A990FE96E16
:100C1000000E0320EA6E98C0EFFF01019E9A0001CA
:100C20003CEF00F0F09683A209D0010E1E26D8B04A
:100C30001F2AD8B4202AD8B4212A08D0FF0E1E2695
:100C4000D8A01F26D8A02026D8A0212621C043F056
:100C500020C042F01FC041F01EC040F0F086F0906E
:100C60003CEF00F0F09883A417D0010E2626D8B0F0
:100C7000272AD8B4282AD8B4292A3A50540803E09D
:100C80003A50460808E1010E2226D8B0232AD8B4EB
:100C9000242AD8B4252A16D0FF0E2626D8A0272627
:100CA000D8A02826D8A029263A50540803E03A5064
:100CB000460808E1FF0E2226D8A02326D8A0242625
:100CC000D8A0252629C04BF028C04AF027C049F0FB
:100CD00026C048F0F088F0923CEF00F03B80C50E53
:100CE000CF6E670ECE6E9E903CEF00F03BA865EF96
:100CF0000BF03B843B863B92216A206A1F6A1E6A86
:100D0000296A286A276A266A4B6A4A6A496A486ACF
:100D1000436A426A416A406A3B98CC51540A11E0E6
:100D2000070AD8B4B4D0150AD8B452D1040AD8B43A
:100D3000F5D1100AD8B495D21E0AD8B4B0D364EF56
:100D40000BF0166AF2BE168EF29E0101486B476BDD
:100D5000480E466F850E456FD0C04CF1CFC04BF1A9
:100D6000CEC04AF1CDC049F10001CCEC00F016BE76
:100D7000F28E00C0D1F001C0D2F002C0D3F003C0A7
:100D8000D4F0166AF2BE168EF29E03C04CF102C079
:100D90004BF101C04AF100C049F10101506B800ED6
:100DA0004F6F2C0E4E6F870E4D6F000162EC01F0FD
:100DB00016BEF28E166AF2BE168EF29E03C046F181
:100DC00002C045F101C044F100C043F18EDD16BE02
:100DD000F28E03C04FF002C04EF001C04DF000C0D3
:100DE0004CF0166AF2BE168EF29E0101486B476BFC
:100DF000480E466F850E456FD0C04CF1CFC04BF109
:100E0000CEC04AF1CDC049F10001CCEC00F016BED5
:100E1000F28E00C0D1F001C0D2F002C0D3F003C006
:100E2000D4F0166AF2BE168EF29E03C04CF102C0D8
:100E30004BF101C04AF100C049F10101506B800E35
:100E40004F6F2C0E4E6F870E4D6F000162EC01F05C
:100E500016BEF28E166AF2BE168EF29E03C046F1E0
:100E600002C045F101C044F100C043F13EDD16BEB1
:100E7000F28E03C047F002C046F001C045F000C04A
:100E800044F0256A246A236A226A65EF0BF0166A29
:100E9000F2BE168EF29E0101486B476B480E466FFC
:100EA000850E456FD0C04CF1CFC04BF1CEC04AF19A
:100EB000CDC049F10001CCEC00F016BEF28E00C0AE
:100EC000D1F001C0D2F002C0D3F003C0D4F0166A52
:100ED000F2BE168EF29E03C04CF102C04BF101C06F
:100EE0004AF100C049F10101506B800E4F6F2C0E8A
:100EF0004E6F870E4D6F000162EC01F016BEF28E50
:100F0000166AF2BE168EF29E03C046F102C045F18B
:100F100001C044F100C043F1E8DC16BEF28E03C00C
:100F20004FF002C04EF001C04DF000C04CF0166A08
:100F3000F2BE168EF29E0101486B476B480E466F5B
:100F4000850E456FD0C04CF1CFC04BF1CEC04AF1F9
:100F5000CDC049F10001CCEC00F016BEF28E00C00D
:100F6000D1F001C0D2F002C0D3F003C0D4F0166AB1
:100F7000F2BE168EF29E03C04CF102C04BF101C0CE
:100F80004AF100C049F10101506B800E4F6F2C0EE9
:100F90004E6F870E4D6F000162EC01F016BEF28EAF
:100FA000166AF2BE168EF29E03C046F102C045F1EB
:100FB00001C044F100C043F198DC16BEF28E03C0BC
:100FC00047F002C046F001C045F000C044F07DD3B8
:100FD000166AF2BE168EF29E0101486B476B480EF0
:100FE000466F850E456FD0C04CF1CFC04BF1CEC0DF
:100FF0004AF1CDC049F10001CCEC00F016BEF28EF2
:1010000000C0D1F001C0D2F002C0D3F003C0D4F0D0
:10101000166AF2BE168EF29E03C04CF102C04BF16E
:1010200001C04AF100C049F10101506B800E4F6FC1
:101030002C0E4E6F870E4D6F000162EC01F016BE54
:10104000F28E166AF2BE168EF29E03C046F102C000
:1010500045F101C044F100C043F147DC16BEF28EF9
:1010600003C04FF002C04EF001C04DF000C04CF084
:10107000166AF2BE168EF29E0101486B476B480E4F
:10108000466F850E456FD0C04CF1CFC04BF1CEC03E
:101090004AF1CDC049F10001CCEC00F016BEF28E51
:1010A00000C0D1F001C0D2F002C0D3F003C0D4F030
:1010B000166AF2BE168EF29E03C04CF102C04BF1CE
:1010C00001C04AF100C049F10101506B800E4F6F21
:1010D0002C0E4E6F870E4D6F000162EC01F016BEB4
:1010E000F28E166AF2BE168EF29E03C046F102C060
:1010F00045F101C044F100C043F175EC04F016BEA7
:10110000F28E03C047F002C046F001C045F000C0B7
:1011100044F0256A246A236A226AD7D2166AF2BE8C
:10112000168EF29E0101486B476BC80E466F850E06
:10113000456FD0C04CF1CFC04BF1CEC04AF1CDC00D
:1011400049F10001CCEC00F016BEF28E00C0D1F0E7
:1011500001C0D2F002C0D3F003C0D4F0166AF2BED0
:10116000168EF29E03C04CF102C04BF101C04AF151
:1011700000C049F10101506B800E4F6F2C0E4E6F75
:10118000870E4D6F000162EC01F016BEF28E166AFA
:10119000F2BE168EF29E03C046F102C045F101C0B8
:1011A00044F100C043F175EC04F016BEF28E03C0AA
:1011B0004FF002C04EF001C04DF000C04CF0166A76
:1011C000F2BE168EF29E0101486B476BC80E466F49
:1011D000850E456FD0C04CF1CFC04BF1CEC04AF167
:1011E000CDC049F10001CCEC00F016BEF28E00C07B
:1011F000D1F001C0D2F002C0D3F003C0D4F0166A1F
:10120000F2BE168EF29E03C04CF102C04BF101C03B
:101210004AF100C049F10101506B800E4F6F2C0E56
:101220004E6F870E4D6F000162EC01F016BEF28E1C
:10123000166AF2BE168EF29E03C046F102C045F158
:1012400001C044F100C043F175EC04F016BEF28E0B
:1012500003C047F002C046F001C045F000C044F0B2
:1012600034D2CDC0D1F0CE51800AD26FCFC0D3F0EE
:10127000D0C0D4F0166AF2BE168EF29ED0C048F1ED
:10128000CFC047F1E8CF46F1CDC045F1560E010180
:101290004C6F0E0E4B6F490E4A6F800E496F000166
:1012A000CCEC00F016BEF28E00C0D1F001C0D2F03E
:1012B00002C0D3F003C0D4F0166AF2BE168EF29EBE
:1012C00003C04CF102C04BF101C04AF100C049F12A
:1012D0000101506B4F6B340E4E6F860E4D6F000147
:1012E00062EC01F016BEF28E03C05BF002C05AF051
:1012F00001C059F000C058F0166AF2BE168EF29E78
:101300005BC048F15AC047F159C046F158C045F199
:1013100001014C6B4B6B160E4A6F860E496F000134
:10132000CCEC00F016BEF28E166AF2BE168EF29E5D
:101330000101486B476BC80E466F850E456F03C0B1
:101340004CF102C04BF101C04AF100C049F100016B
:10135000CCEC00F016BEF28E00C0D1F001C0D2F08D
:1013600002C0D3F003C0D4F0166AF2BE168EF29E0D
:1013700003C04CF102C04BF101C04AF100C049F179
:101380000101506B800E4F6F2C0E4E6F870E4D6F0C
:10139000000162EC01F016BEF28E166AF2BE168EE5
:1013A000F29E03C046F102C045F101C044F100C005
:1013B00043F175EC04F016BEF28E03C04FF002C08C
:1013C0004EF001C04DF000C04CF0166AF2BE168E11
:1013D000F29E5BC048F15AC047F159C046F158C06F
:1013E00045F101014C6B4B6B160E4A6F860E496F2F
:1013F0000001CCEC00F016BEF28E166AF2BE168E1C
:10140000F29E0101486B476B480E466F850E456F93
:1014100003C04CF102C04BF101C04AF100C049F1D8
:101420000001CCEC00F016BEF28E00C0D1F001C07D
:10143000D2F002C0D3F003C0D4F0166AF2BE168E0A
:10144000F29E03C04CF102C04BF101C04AF100C052
:1014500049F10101506B800E4F6F2C0E4E6F870EBD
:101460004D6F000162EC01F016BEF28E166AF2BEFC
:10147000168EF29E03C046F102C045F101C044F150
:1014800000C043F175EC04F016BEF28E03C047F0C5
:1014900002C046F001C045F000C044F016D1166A03
:1014A000F2BE168EF29ED0C048F1CFC047F1CEC03A
:1014B00046F1CDC045F1560E01014C6F0E0E4B6F3B
:1014C000490E4A6F800E496F0001CCEC00F016BE49
:1014D000F28E00C0D1F001C0D2F002C0D3F003C040
:1014E000D4F0166AF2BE168EF29E03C04CF102C012
:1014F0004BF101C04AF100C049F10101506B4F6B43
:10150000340E4E6F860E4D6F000162EC01F016BE78
:10151000F28E03C05BF002C05AF001C059F000C067
:1015200058F0166AF2BE168EF29E5BC048F15AC0A1
:1015300047F159C046F158C045F101014C6B4B6B66
:10154000160E4A6F860E496F0001CCEC00F016BEF5
:10155000F28E166AF2BE168EF29E0101486B476B40
:10156000C80E466F850E456F03C04CF102C04BF1AB
:1015700001C04AF100C049F10001CCEC00F016BEF8
:10158000F28E00C0D1F001C0D2F002C0D3F003C08F
:10159000D4F0166AF2BE168EF29E03C04CF102C061
:1015A0004BF101C04AF100C049F10101506B800EBE
:1015B0004F6F2C0E4E6F870E4D6F000162EC01F0E5
:1015C00016BEF28E166AF2BE168EF29E03C046F169
:1015D00002C045F101C044F100C043F175EC04F0D4
:1015E00016BEF28E03C04FF002C04EF001C04DF0A7
:1015F00000C04CF0166AF2BE168EF29E5BC048F137
:101600005AC047F159C046F158C045F101014C6B31
:101610004B6B160E4A6F860E496F0001CCEC00F042
:1016200016BEF28E166AF2BE168EF29E0101486B4D
:10163000476B480E466F850E456F03C04CF102C0E4
:101640004BF101C04AF100C049F10001CCEC00F0BF
:1016500016BEF28E00C0D1F001C0D2F002C0D3F0AD
:1016600003C0D4F0166AF2BE168EF29E03C04CF18F
:1016700002C04BF101C04AF100C049F10101506BB9
:10168000800E4F6F2C0E4E6F870E4D6F000162EC77
:1016900001F016BEF28E166AF2BE168EF29E03C0DE
:1016A00046F102C045F101C044F100C043F175ECC0
:1016B00004F016BEF28E03C047F002C046F001C02F
:1016C00045F000C044F001D000D07EEF14F0B60E1B
:1016D000006E036A026A016AD891D7AF0CD0D88134
:1016E000D41FD51FD61FD71FD42B05E1D52B03E15F
:1016F000D62BD8B4D72BD451D511D611D71102E19E
:10170000006A0FD0D89001BE09D0D437D537D6376C
:10171000D737033602360136002EF4D7019ED8B1F2
:10172000018E000C8E0E006E01010E51005E0FC185
:1017300002F010C101F0028E005209E0D89002526E
:1017400002E1015204E002320132002EF7D70FAF5E
:1017500005D0011E021E012AD8B4022A0001000C85
:101760008282CD6BCC6BCF6BCE6BD16BD06BD36BDE
:10177000D26B4050445C846F41504558856F425055
:101780004658866F43504758876F84517827855154
:10179000792386517A2387517B238051845D7C6F26
:1017A000815185597D6F825186597E6F835187594A
:1017B0007F6F87C083F086C082F085C081F084C0CF
:1017C00080F087C0D7F086C0D6F085C0D5F084C041
:1017D000D4F07DDF166AF2BE168EF29E63C048F129
:1017E00062C047F161C046F160C045F103C04CF1F1
:1017F00002C04BF101C04AF100C049F1CCEC00F04D
:1018000016BEF28E03C011F102C010F101C00FF13B
:1018100000C00EF187DF02C0CDF001C0CCF07BC06C
:10182000D7F07AC0D6F079C0D5F078C0D4F04FDFC9
:10183000166AF2BE168EF29E6BC048F16AC047F17E
:1018400069C046F168C045F103C04CF102C04BF1DC
:1018500001C04AF100C049F1CCEC00F016BEF28E96
:1018600003C011F102C010F101C00FF100C00EF170
:1018700059DF02C0CFF001C0CEF07FC0D7F07EC0EC
:10188000D6F07DC0D5F07CC0D4F021DF166AF2BE60
:10189000168EF29E67C048F166C047F165C046F1FA
:1018A00064C045F103C04CF102C04BF101C04AF1E4
:1018B00000C049F1CCEC00F016BEF28E03C011F16D
:1018C00002C010F101C00FF100C00EF12BDF02C009
:1018D000D1F001C0D0F0CE51CC25D46FCF51CD2165
:1018E000D56FD051D425D26FD151D521D36FD3BF6D
:1018F0000CD0D351020809E2FF0A03E1D251E808F3
:1019000004E2030ED36FE80ED26FD3AF0BD0D351E6
:10191000FC0808E303E1D251170804E3FC0ED36F7F
:10192000180ED26FD3BF1ED0D35303E1D25100089B
:1019300019E28480D3C03FF0D2C03EF03FC002F035
:101940003EC001F00232013202320132023201C0E5
:10195000BEFF02320230300B006EBD50CF0B0010C4
:10196000BD6E1BD08490D21D3E6ED31D3F6E3E2AAD
:10197000D8B43F2A3FC002F03EC001F0023201322B
:1019800002320132023201C0BEFF02320230300B9D
:10199000006EBD50CF0B0010BD6E87AF12D08751C7
:1019A000FE081FE2FF0A0DE18651FE081AE2FF0A57
:1019B00008E18551FE0815E2FF0A03E18451D808C9
:1019C00010E287BF09D087530CE186530AE18553A3
:1019D00008E18451270805E384908292BE6A3B9413
:1019E00001D03B8402EF12F08284CD6BCC6BCF6BC5
:1019F000CE6BD16BD06BD36BD26B48504C5C946F79
:101A000049504D58956F4A504E58966F4B504F580D
:101A1000976F945188279551892396518A2397511E
:101A20008B239051945D8C6F915195598D6F92518C
:101A300096598E6F935197598F6F97C093F096C0B8
:101A400092F095C091F094C090F097C0D7F096C0F6
:101A5000D6F095C0D5F094C0D4F039DE166AF2BE47
:101A6000168EF29E6FC048F16EC047F16DC046F110
:101A70006CC045F103C04CF102C04BF101C04AF10A
:101A800000C049F1CCEC00F016BEF28E03C011F19B
:101A900002C010F101C00FF100C00EF143DE02C020
:101AA000CDF001C0CCF08BC0D7F08AC0D6F089C091
:101AB000D5F088C0D4F00BDE166AF2BE168EF29E08
:101AC00077C048F176C047F175C046F174C045F162
:101AD00003C04CF102C04BF101C04AF100C049F112
:101AE000CCEC00F016BEF28E03C011F102C010F172
:101AF00001C00FF100C00EF115DE02C0CFF001C031
:101B0000CEF08FC0D7F08EC0D6F08DC0D5F08CC08F
:101B1000D4F0DDDD166AF2BE168EF29E73C048F177
:101B200072C047F171C046F170C045F103C04CF17D
:101B300002C04BF101C04AF100C049F1CCEC00F009
:101B400016BEF28E03C011F102C010F101C00FF1F8
:101B500000C00EF1E7DD02C0D1F001C0D0F0CE51DF
:101B6000CC25D46FCF51CD21D56FD051D425D26F94
:101B7000D151D521D36FD3BF0CD0D351020809E284
:101B8000FF0A03E1D251E80804E2030ED36FE80E26
:101B9000D26FD3AF0BD0D351FC0808E303E1D2518D
:101BA000170804E3FC0ED36F180ED26FD3BF1ED0FC
:101BB000D35303E1D251000819E28484D3C03DF02D
:101BC000D2C03CF03DC002F03CC001F00232013214
:101BD00002320132023201C0BEFF02320230300B4B
:101BE000006EBD50CF0B0010BD6E1BD08494D21D73
:101BF0003C6ED31D3D6E3C2AD8B43D2A3DC002F058
:101C00003CC001F00232013202320132023201C024
:101C1000BEFF02320230300B006EBD50CF0B001001
:101C2000BD6E97BF09D0975320E196531EE195539F
:101C30001CE19451270819E397AF12D09751FE0881
:101C400014E2FF0A0DE19651FE080FE2FF0A08E1D7
:101C50009551FE080AE2FF0A03E19451D80805E213
:101C600084948294BB6A3B9601D03B8604EF12F0C9
:101C70000FC116F101011351161B16AF05D0D894F0
:101C8000D8900FBFD8802FD00FC116F112C117F115
:101C90000E51175F06E016AF26D0D850010AD86E55
:101CA00022D013C117F10F51175F06E016AF1BD0FA
:101CB000D850010AD86E17D014C117F11051175F10
:101CC00006E016AF10D0D850010AD86E0CD015C15E
:101CD00017F11151175F06E016AF05D0D850010A71
:101CE000D86E01D0D8900001000CEF6BEE6BED6B5D
:101CF0007F0EEC6F7E0EF66F800EF76FF86BF96B50
:101D00007A0EFA6F2A0EFB6FAA0EFC6FAB0EFD6FF8
:101D1000750EFE6FB60EFF6F0B0E0101006F610EA8
:101D2000016F6F0E026F500E036F0D0E046F010EE8
:101D3000056F690E066F930E076FF20E086F7E0E29
:101D4000096F620E0A6F0F0E0B6F760E0C6FAE0EE0
:101D50000D6FE3C011F1E2C010F1E1C00FF1E0C07E
:101D60000EF1156B146B136B126B000181DF03E333
:101D7000E151800AE16F166AF2BE168EF29EE3C050
:101D80004CF1E2C04BF1E1C04AF1E0C049F1DB0E99
:101D90000101506F0F0E4F6F490E4E6F7F0E4D6F4A
:101DA000000162EC01F016BEF28E03C011F102C018
:101DB00010F101C00FF100C00EF1B4DC01C0F0F071
:101DC000166AF2BE168EF29EE3C04CF1E2C04BF1F1
:101DD000E1C04AF1E0C049F1DB0E0101506F0F0E86
:101DE0004F6F490E4E6F7F0E4D6F000162EC01F098
:101DF00016BEF28E00C00EF101C00FF102C010F14C
:101E000003C011F1166AF2BE168EF29E01014A6BF2
:101E1000F0C049F1000147EC01F016BEF28ED88205
:101E2000166AF2BE168EF29E11C14CF110C14BF132
:101E30000FC14AF10EC149F103C050F102C04FF188
:101E400001C04EF100C04DF111EC02F016BEF28E51
:101E500003C0F5F002C0F4F001C0F3F000C0F2F0EE
:101E6000030EF017F05303E0F051020823E1166A65
:101E7000F2BE168EF29EF5C048F1F4C047F1F3C0F1
:101E800046F1F2C045F1DB0E01014C6F0F0E4B6FB6
:101E9000490E4A6F7F0E496F0001CCEC00F016BE70
:101EA000F28E03C0EBF002C0EAF001C0E9F000C01E
:101EB000E8F087D0F02D43D0D882166AF2BE168E95
:101EC000F29E01014C6B4B6B4A6B7F0E496FF5C064
:101ED00050F1F4C04FF1F3C04EF1F2C04DF10001EA
:101EE00011EC02F016BEF28E00C00EF101C00FF12F
:101EF00002C010F103C011F1166AF2BE168EF29EF6
:101F000003C048F102C047F101C046F100C045F1ED
:101F1000DB0E01014C6F0F0E4B6F490E4A6F7F0EA7
:101F2000496F0001CCEC00F016BEF28E03C0EBF05E
:101F300002C0EAF001C0E9F000C0E8F042D0D88267
:101F4000166AF2BE168EF29EF5C04CF1F4C04BF14B
:101F5000F3C04AF1F2C049F10101506B4F6B4E6B77
:101F60007F0E4D6F000111EC02F016BEF28E00C024
:101F70000EF101C00FF102C010F103C011F1166A99
:101F8000F2BE168EF29E03C048F102C047F101C0B6
:101F900046F100C045F1DB0E01014C6F0F0E4B6F97
:101FA000490E4A6F7F0E496F0001CCEC00F016BE5F
:101FB000F28E03C0EBF002C0EAF001C0E9F000C00D
:101FC000E8F0E76BE66BE56B7F0EE46F166AF2BE36
:101FD000168EF29EEBC048F1EAC047F1E9C046F127
:101FE000E8C045F1EBC04CF1EAC04BF1E9C04AF161
:101FF000E8C049F1CCEC00F016BEF28E03C0EBF065
:1020000002C0EAF001C0E9F000C0E8F0F16BF15164
:10201000050874E3166AF2BE168EF29EEFC048F110
:10202000EEC047F1EDC046F1ECC045F1EBC04CF11C
:10203000EAC04BF1E9C04AF1E8C049F1CCEC00F04C
:1020400016BEF28E03C0EFF002C0EEF001C0EDF05C
:1020500000C0ECF0F151040DF350036AF60FE96E85
:10206000000E0320EA6EEFCF0EF1ECCF0FF1ECCFB4
:1020700010F1ECCF11F1166AF2BE168EF29E11C16C
:1020800048F110C147F10FC146F10EC145F1EFC053
:102090004CF1EEC04BF1EDC04AF1ECC049F1CCEC93
:1020A00000F016BEF28EEACF0FF1E9CF0EF1D89212
:1020B000166AF2BE168EF29EE7C04CF1E6C04BF1F6
:1020C000E5C04AF1E4C049F103C050F102C04FF14C
:1020D00001C04EF100C04DF111EC02F016BEF28EBF
:1020E0000FC1EAFF0EC1E9FF03C0E7F002C0E6F04E
:1020F00001C0E5F000C0E4F0F12B89D7F0510208EF
:1021000002E0F02D03D0E551800AE56FE4C000F055
:10211000E5C001F0E6C002F0E7C003F0000CD88291
:10212000166AF2BE168EF29EDBC04CF1DAC04BF19D
:10213000D9C04AF1D8C049F1DB0E0101506F0F0E32
:102140004F6F490E4E6F7F0E4D6F000111EC02F084
:1021500016BEF28E00C0DCF001C0DDF002C0DEF081
:1021600003C0DFF003C0E3F002C0E2F001C0E1F021
:1021700000C0E0F0BADD94EF11F0166AF2BE168EE0
:10218000F29E5FC048F15EC047F15DC046F15CC0A1
:1021900045F1DB0E01014C6F0F0E4B6F490E4A6F7C
:1021A000800E496F0001CCEC00F016BEF28E00C02C
:1021B000D4F001C0D5F002C0D6F003C0D7F0166A43
:1021C000F2BE168EF29E03C04CF102C04BF101C06C
:1021D0004AF100C049F10101506B4F6B340E4E6F54
:1021E000860E4D6F000162EC01F016BEF28E00C04B
:1021F000D4F001C0D5F002C0D6F003C0D7F003C0C0
:10220000E3F002C0E2F001C0E1F000C0E0F06DDDFB
:10221000166AF2BE168EF29ED3C048F1D2C047F1C4
:10222000D1C046F1D0C045F103C04CF102C04BF122
:1022300001C04AF100C049F1CCEC00F016BEF28EAC
:10224000EACFD5F0E9CFD4F0D892166AF2BE168E56
:10225000F29E35C04CF134C04BF133C04AF132C06C
:1022600049F103C050F102C04FF101C04EF100C06E
:102270004DF111EC02F016BEF28ED5C0EAFFD4C0CB
:10228000E9FF03C02DF002C02CF001C02BF000C00C
:102290002AF0166AF2BE168EF29E5FC048F15EC04A
:1022A00047F15DC046F15CC045F1DB0E01014C6FAA
:1022B0000F0E4B6F490E4A6F800E496F0001CCEC38
:1022C00000F016BEF28E00C0D4F001C0D5F002C0FE
:1022D000D6F003C0D7F0166AF2BE168EF29E03C087
:1022E0004CF102C04BF101C04AF100C049F10101BB
:1022F000506B4F6B340E4E6F860E4D6F000162ECCB
:1023000001F016BEF28E00C0D4F001C0D5F002C0BC
:10231000D6F003C0D7F003C0DBF002C0DAF001C092
:10232000D9F000C0D8F0FBD6166AF2BE168EF29E27
:10233000D3C048F1D2C047F1D1C046F1D0C045F179
:1023400003C04CF102C04BF101C04AF100C049F199
:10235000CCEC00F016BEF28EEACFD5F0E9CFD4F087
:10236000D892166AF2BE168EF29E39C04CF138C071
:102370004BF137C04AF136C049F103C050F102C0F9
:102380004FF101C04EF100C04DF111EC02F016BE4C
:10239000F28ED5C0EAFFD4C0E9FF03C031F002C01D
:1023A00030F001C02FF000C02EF02DC035F02CC051
:1023B00034F02BC033F02AC032F031C039F030C0D5
:1023C00038F02FC037F02EC036F0000CB60E006E7D
:1023D000036A026A016ACC51CD11CE11CF1102E11C
:1023E000006A0DD0D89001BE09D0CC37CD37CE379A
:1023F000CF37033602360136002EF4D7019E000C8B
:10240000B0EF0BF0F4EF0CF03BB490D13BB68ED1B3
:102410003BBA8CD13A50520823E1D882166AF2BEF8
:10242000168EF29E5FC04CF15EC04BF15DC04AF16A
:102430005CC049F157C050F156C04FF155C04EF144
:1024400054C04DF111EC02F016BEF28E03C05FF0E5
:1024500002C05EF001C05DF000C05CF03A6A49D095
:102460003A504C0823E1D892166AF2BE168EF29EBC
:102470005FC04CF15EC04BF15DC04AF15CC049F1F8
:1024800057C050F156C04FF155C04EF154C04DF1F8
:1024900011EC02F016BEF28E03C05FF002C05EF0D7
:1024A00001C05DF000C05CF03A6A23D03A50540895
:1024B0000BE157C0D3F056C0D2F055C0D1F054C094
:1024C000D0F05BDE3A6A15D03A50420812E154C0AF
:1024D000CCF05550800ACD6F56C0CEF057C0CFF02B
:1024E00057C0D3F056C0D2F0D16F54C0D0F045DE03
:1024F0003A6A0101116B106B340E0F6F870E0E6F6D
:102500005FC015F15EC014F15DC013F15CC012F143
:10251000000138EC0EF001E221E1D882166AF2BE29
:10252000168EF29E5FC04CF15EC04BF15DC04AF169
:102530005CC049F10101506B4F6B340E4E6F870E3A
:102540004D6F000111EC02F016BEF28E03C05FF079
:1025500002C05EF001C05DF000C05CF05FC011F130
:102560005EC010F15DC00FF15CC00EF10101156B92
:10257000146B136B126B000138EC0EF021E3D89250
:10258000166AF2BE168EF29E5FC04CF15EC04BF131
:102590005DC04AF15CC049F10101506B4F6B340ED4
:1025A0004E6F870E4D6F000111EC02F016BEF28ED9
:1025B00003C05FF002C05EF001C05DF000C05CF0DF
:1025C000166AF2BE168EF29E2DC046F12CC045F161
:1025D0002BC044F12AC043F175EC04F016BEF28E14
:1025E00003C0CFF002C0CEF001C0CDF000C0CCF0EF
:1025F000EDDE03C02DF002C02CF001C02BF000C0B6
:102600002AF0166AF2BE168EF29E31C046F130C034
:1026100045F12FC044F12EC043F175EC04F016BE15
:10262000F28E03C0CFF002C0CEF001C0CDF000C0EA
:10263000CCF0CCDE03C031F002C030F001C02FF08E
:1026400000C02EF0166AF2BE168EF29E5FC046F1F2
:102650005EC045F15DC044F15CC043F175EC04F02F
:1026600016BEF28E03C0CFF002C0CEF001C0CDF096
:1026700000C0CCF0ABDE03C05FF002C05EF001C072
:102680005DF000C05CF0580E9EA8FED7AD6E890EBE
:10269000E96E166AF2BE168EF29E2DC039F12CC07C
:1026A00038F12BC037F12AC036F1020E01013A6F22
:1026B0000001D6EC04F016BEF28E590E9EA8FED78D
:1026C000AD6E890EE96E166AF2BE168EF29E31C0AC
:1026D00039F130C038F12FC037F12EC036F1020E7B
:1026E00001013A6F0001D6EC04F016BEF28E5A0ECC
:1026F0009EA8FED7AD6E890EE96E166AF2BE168EE2
:10270000F29E5FC039F15EC038F15DC037F15CC048
:1027100036F1020E01013A6F0001D6EC04F016BE4C
:10272000F28E410E9EA8FED7AD6E3B8A7FEF14F06D
:10273000F86AD09E078EEA6AE96AB886810EAF6EA3
:10274000000EB06EA60EAC6E900EAB6E216A206AC3
:102750001F6A1E6A256A246A236A226A296A286A0D
:10276000276A266A2D6A2C6A2B6A2A6A316A306ABD
:102770002F6A2E6A356A346A336A326A396A386A6D
:10278000376A366A3A6A3B903D6A3C6A3F6A3E6AFB
:10279000436A426A416A406A476A466A456A446ACD
:1027A0004B6A4A6A496A486A4F6A4E6A4D6A4C6A7D
:1027B0003B923B943B963B983B9A5B6A5A6A596AB8
:1027C000586A5F6A5E6A340E5D6E850E5C6E636B7E
:1027D000626B340E616F850E606F676B666B100EF7
:1027E000656F820E646FAC0E6B6FC50E6A6F270E3D
:1027F000696F6E0E686F6F6B6E6B340E6D6F850E4A
:102800006C6F736B726B100E716F820E706FAC0E0B
:10281000776FC50E766F270E756F6E0E746F7B6BBC
:102820007A6B796B786B7F6B7E6B7D6B7C6B836B6C
:10283000826B816B806B876B866B856B846B8B6B1C
:102840008A6B896B886B8F6B8E6B8D6B8C6B936BCC
:10285000926B916B906B976B966B956B946BCB6B4C
:10286000C150C00B0F09C16E070EB46E176A186A0B
:102870001D6A996B000E926EFF0E936E000E966E9F
:10288000800E946E0F0E956E84908494C150C00B90
:102890000F09C16E850ECD6EC50ECF6E670ECE6E62
:1028A000000E0509CA6EFF0ECB6E94928B92949423
:1028B0008B9494948B94969C0C0EBD6EB76AB66AFA
:1028C00094928B92BA6EBE6ABB6A9D8AF086F0883B
:1028D000F19AF1989D80C00EF212899082828284D2
:1028E0003BA00ED03AC0CCF057C0D0F056C0CFF0CD
:1028F00055C0CEF054C0CDF076EF06F081D53B90B8
:04290000EFD703000A
:020000040030CA
:0E00000024CC391E008781000FC00FE00F4096
:00000001FF
;PIC18F4550
;CRC=BBF0  CREATED="10-Oct-15 09:28"
